:0400000094EF00F089
:100008004A82FACF3EF0FBCF3FF0D9CF40F0DACFAB
:1000180041F0F3CF42F0F4CF43F0F6CF44F0F7CFFE
:1000280045F0F8CF46F0F5CF47F09DA81EEF00F059
:1000380020EF00F035EF00F09EA825EF00F027EF45
:1000480000F035EF00F002D833EF00F00500FA6E4B
:100058004850FD6E4950FE6EFF6AFA5012007EEF5E
:1000680000F09DAA3AEF00F03CEF00F052EF00F0EC
:100078009EAA41EF00F043EF00F052EF00F002D8E3
:1000880050EF00F00500FA6E0001B451FD6EB55155
:10009800FE6EFF6AFA5012007EEF00F0A0A657EF3E
:1000A80000F059EF00F06EEF00F0A1A65EEF00F04F
:1000B80060EF00F06EEF00F002D86CEF00F0050082
:1000C800FA6E0F50FD6E1050FE6EFF6AFA50120065
:1000D8007EEF00F09DA673EF00F075EF00F07EEF65
:1000E80000F09EA67AEF00F07CEF00F07EEF00F0C3
:1000F80060EF00F047C0F5FF46C0F8FF45C0F7FFC6
:1001080044C0F6FF43C0F4FF42C0F3FF41C0DAFF2A
:1001180040C0D9FF3FC0FBFF3EC0FAFF4A92110022
:040128007CEF0DF06B
:10100000003A1CF81B081CF81066122E1CAA14C407
:101010001CBC1CB41CAC1CA41C9C1C941C221CDA04
:101020001644617465203A200D00323000000C38FF
:101030000F0B300F186E0C500F0B300F196E3A0E4D
:101040001A6E0D380F0B300F1B6E0D500F0B300F3B
:101050001C6E3A0E1D6E0E380F0B300F1E6E0E50AA
:101060000F0B300F1F6E200E206E2A0E216E200EE9
:10107000226E09380F0B300F236E09500F0B300F03
:10108000246E3A0E256E0A380F0B300F266E0A506A
:101090000F0B300F276E3A0E286E0B380F0B300FE8
:1010A000296E0B500F0B300F2A6E0D0E2B6E210E7A
:1010B00000019B6F9B51D8A4100E9C6F000E9E6F79
:1010C000080E9D6F04EC0CF02A0E00019B6F9B51E3
:1010D000D8A4100E9C6F000E9E6F020E9D6F04EC44
:1010E0000CF0180E00019B6F9C6B000E9E6F140E8F
:1010F0009D6F04EC0CF01200F2EC0DF00009D8B476
:1011000084EF08F086EF08F0C1EF08F094EF08F0E4
:1011100062EC0EF0DDEF08F05EEC0EF0DDEF08F0B3
:1011200056EC0EF0DDEF08F072C036F073C037F009
:1011300002D8A5EF08F00500FA6E00016651FD6EB9
:101140006751FE6EFF6AFA501200396E3A6A3A50E1
:10115000000AD8B4AEEF08F090EF08F03950010A59
:10116000D8B490EF08F0030AD8B488EF08F0010A69
:10117000D8B48CEF08F0070AD8B490EF08F090EFDD
:1011800008F0000183917DC0D9FF7EC0DAFF7D4B5E
:101190007E2BDF5066EC0EF000017F07D8A08007A1
:1011A0007F518011D8A4D7EF08F0D9EF08F0DCEF19
:1011B00008F0060EDDEF08F0030E12001450010FC8
:1011C000D96EDA6ADF6AABA4E8EF08F0EAEF08F05C
:1011D000FCEF08F01450010FD96EDA6ADF8202D8F2
:1011E000FCEF08F00500FA6E0001B251FD6EB3513C
:1011F000FE6EFF6AFA501200ABA201EF09F003EF96
:1012000009F015EF09F01450010FD96EDA6ADF8486
:1012100002D815EF09F00500FA6E0001B051FD6E1D
:10122000B151FE6EFF6AFA5012001450010FD96ED0
:10123000DA6ADF50D8B41FEF09F021EF09F030EF80
:1012400009F002D82EEF09F00500FA6E0001AE5148
:10125000FD6EAF51FE6EFF6AFA50120032EF09F0D8
:1012600045EC0DF0120087EC0EF07DC0D9FF7EC07A
:10127000DAFFDF6E00017D4B7E2B7F07D8A0800751
:101280007F518011D8B447EF09F049EF09F04EEFD4
:1012900009F06DEC0EF0050E85EF09F0838759EF2C
:1012A00009F04AEC0EF085EF09F04EEC0EF085EFF8
:1012B00009F06CC036F06DC037F002D869EF09F064
:1012C0000500FA6E6051FD6E6151FE6EFF6AFA50C4
:1012D0001200396E3A6A3A50000AD8B472EF09F037
:1012E00055EF09F03950010AD8B455EF09F0030A57
:1012F000D8B451EF09F0010AD8B451EF09F0070A48
:10130000D8B455EF09F055EF09F0120000019C6FB9
:10131000010E00019D6F83B590EF09F092EF09F087
:10132000D5EF09F09CC07CF08393838583910E0EEA
:10133000816F010E7B6FF40E7A6F83871A0E606FD8
:101340001D0E616F000E6C6F000E6D6F1A0E626FD6
:101350001D0E636F000E6E6F000E6F6F1A0E646FBE
:101360001D0E656F000E706F000E716F1A0E666FA6
:101370001D0E676F000E726F000E736F160E686F92
:101380001D0E696F000E746F000E756FD40E9A6F8C
:101390001C0E9B6F41EC0EF081EC0EF08DEC0DF00D
:1013A00079EC0EF0000E00019D6F9D5112009D9A88
:1013B000BC0E00019A6F110E9B6F2DEC0EF09D98E4
:1013C000400E00019A6F190E9B6F28EC0EF0080E6C
:1013D000B86E900EAB6E240EAC6EA00EAF6E010E0A
:1013E000B06E260E00019A6F1D0E9B6F37EC0EF04B
:1013F000E60E00019A6F1C0E9B6F32EC0EF0EC0EA5
:1014000000019A6F1C0E9B6F3CEC0EF0000E116EEB
:10141000000E176E000E166E080E156E000E146E7E
:10142000000E136E000E126E9D8A12000001A46F52
:10143000000E0001A56F0001A45186EC09F000091F
:10144000D8B425EF0AF027EF0AF01BEF0AF0320EAE
:1014500000019F6F1A0EA06FA50EA16FA26BAEECDC
:101460000DF0A30E00019A6F9B6B000E9D6F010E95
:101470009C6F58EC0DF0000E00019F6F000EA06FE6
:10148000000EA16F000EA26FBAEC0DF046EC0EF04C
:10149000D6EC0CF0E806D8B450EF0AF052EF0AF0A0
:1014A00048EF0AF00001A55112000001838766EFA2
:1014B0000AF05AEC0EF092EF0AF085EC0EF0030EF3
:1014C00092EF0AF056EC0EF092EF0AF06CC036F094
:1014D0006DC037F002D876EF0AF00500FA6E605161
:1014E000FD6E6151FE6EFF6AFA501200396E3A6A63
:1014F0003A50000AD8B47FEF0AF062EF0AF0395090
:10150000010AD8B462EF0AF0030AD8B459EF0AF01E
:10151000010AD8B459EF0AF0070AD8B45DEF0AF00F
:1015200062EF0AF012000001A56F0001A55186ECE0
:1015300009F00009D8B49FEF0AF0A1EF0AF095EF87
:101540000AF0DA0E00019F6F190EA06FA40EA16FB2
:10155000A26BAEEC0DF0A30E00019A6F9B6B000E18
:101560009D6F010E9C6F58EC0DF0000E00019F6FF7
:10157000000EA06F000EA16F000EA26FBAEC0DF06E
:1015800046EC0EF0D6EC0CF0E806D8B4CAEF0AF040
:10159000CCEF0AF0C2EF0AF0120083EC0EF000016B
:1015A00083A1D5EF0AF0D7EF0AF0E4EF0AF0F2ECEE
:1015B0000DF00009D8B4DFEF0AF0E1EF0AF0E4EF34
:1015C0000AF00F0E0001816F00018151020DF350EE
:1015D000010F3B6E3BC0F6FF100EF76EF86A090074
:1015E000F5CF3CF00900F5CF3DF002D801EF0BF04C
:1015F0000500FA6E3C50FD6E3D50FE6EFF6AFA50DB
:1016000012000001816F120000019E6F00019A51CB
:101610009B11D8B40EEF0BF010EF0BF026EF0BF090
:101620009E51020DF350600FD96EDA6A9AC0DEFF48
:101630009BC0DDFF9E51020DF3506C0FD96EDA6A2C
:101640009CC0DEFF9DC0DDFF38EF0BF09E51020D08
:10165000F350600FD96EDA6A1A0EDE6E1D0EDD6E63
:101660009E51020DF3506C0FD96EDA6ADE6ADD6AA4
:101670001200000E0001A36FD00E16EC0AF00B6EE4
:10168000010E0001A36FD00E16EC0AF00A6E020ED6
:101690000001A36FD00E16EC0AF0096E040E0001D3
:1016A000A36FD00E16EC0AF00E6E050E0001A36FAC
:1016B000D00E16EC0AF00D6E060E0001A36FD00ED0
:1016C00016EC0AF00C6E20EE09F000EEA6F0050E06
:1016D000DBCFEBFFE806FCE2120000018391020E73
:1016E000826F7BEF0BF05AEC0EF09FEF0BF056EC95
:1016F0000EF09FEF0BF070C036F071C037F002D8DB
:101700008BEF0BF00500FA6E6451FD6E6551FE6EB5
:10171000FF6AFA501200396E3A6A3A50000AD8B499
:1017200094EF0BF077EF0BF03950020AD8B473EF57
:101730000BF0010AD8B473EF0BF077EF0BF0120047
:10174000316E2D502E10D8B4A8EF0BF0AAEF0BF08D
:10175000C0EF0BF03150020DF350600FD96EDA6A12
:101760002DC0DEFF2EC0DDFF3150020DF3506C0F97
:10177000D96EDA6A2FC0DEFF30C0DDFFD2EF0BF08A
:101780003150020DF350600FD96EDA6A1A0EDE6E18
:101790001D0EDD6E3150020DF3506C0FD96EDA6AFA
:1017A000DE6ADD6A1200D2EC0DF0D7EC09F0F28EA1
:1017B000F28CF28C39EC0BF020EE94F0050EEBCFAE
:1017C000DBFFE806FCE217EC08F0150E0001AD6F38
:1017D0004B0EAC6FBE0EE82EFED7AC2FFCD7AD2F54
:1017E000FAD700002C0E0001A66F9E0E9EEC0DF0A5
:1017F000000E0001A66F2CC0A7F0A20EDDEC0DF0CC
:10180000DAEF0BF094EF00F0000E0001A06F000E75
:101810009F6F000EA06F000E9F6F27EF0CF09BC014
:10182000F6FF9CC0F7FF000EF86E0F0EF76403D0B2
:101830000800F55005D0F6CFE9FFF7CFEAFFEF50EB
:1018400033EC0CF000019B4B9C2B9F4BA02B9D512C
:101850009F5D9E51A059D8A030EF0CF032EF0CF0F4
:101860000FEF0CF0120000019A6F1550D8B43BEF47
:101870000CF03DEF0CF035EF0CF09DB842EF0CF0A2
:1018800044EF0CF048EF0CF09AC0ADFF5BEF0CF0AA
:101890009D9817508C0FD96EDA6A9AC0DFFF172A0D
:1018A000070E176456EF0CF058EF0CF05AEF0CF0DF
:1018B000000E176E15069D88120000019A6F010E2A
:1018C00000019B6F83B367EF0CF069EF0CF07CEFC6
:1018D0000CF08383000E9B6F9A51D8B472EF0CF01A
:1018E00074EF0CF078EF0CF0010E816F7AEF0CF0D2
:1018F000020E816F7BEC0EF000019B51120020EE76
:1019000002F03650D9263750DA22DF50386E38C010
:101910002DF02E6A36C0D9FF37C0DAFFDECF2FF0A8
:10192000DDCF30F06AEC0DF0000E326E000E336E3B
:10193000000E346E000E356EC6EC0DF0020E120075
:10194000080E1560A6EF0CF0A8EF0CF0BCEF0CF041
:1019500016508C0FD96EDA6ADF50AD6E162A070E5C
:101960001664B5EF0CF0B7EF0CF0B9EF0CF0000E09
:10197000166E152ABDEF0CF09D981200000E8D6EAC
:10198000000E8C6E000E896E000E8A6E000E8B6E3D
:10199000070E966E92689368BF0E946E95687E6887
:1019A0001F0E7F6E000E7C6EF18E1200010E000184
:1019B0009A6F83B3DEEF0CF0E0EF0CF0EAEF0CF07F
:1019C00083957C6981EC0EF07DEC0EF07FEC0EF0DF
:1019D00082C09AF000019A51120036C02DF037C033
:1019E0002EF0000E306E010E2F6E6AEC0DF0000E20
:1019F000326E000E336E000E346E000E356EC6EC85
:101A00000DF0040E120036C02DF037C02EF0000E7F
:101A1000306E020E2F6E6AEC0DF0000E326E000E6C
:101A2000336E000E346E000E356EC6EC0DF0020EF5
:101A3000120036C02DF037C02EF0000E306E010EB1
:101A40002F6E6AEC0DF0000E326E000E336E000E3B
:101A5000346E000E356EC6EC0DF0020E120036C06C
:101A60002DF037C02EF0000E306E020E2F6E6AEC95
:101A70000DF0000E326E000E336E000E346E000E4E
:101A8000356EC6EC0DF0040E12001450840FD96EA2
:101A9000DA6AAECFDFFF142A070E146452EF0DF09E
:101AA00054EF0DF056EF0DF0000E146E122A1200D6
:101AB000000183A75EEF0DF060EF0DF069EF0DF010
:101AC0009AC07DF09BC07EF09CC07FF09DC080F0EE
:101AD00083971200000183A770EF0DF072EF0DF0F5
:101AE0007BEF0DF02DC07DF02EC07EF02FC07FF07B
:101AF00030C080F08397120000EE60F03A0EEE6A7C
:101B0000E806FDE100EE01F02C0EEE6AE806FDE1CC
:101B10004A904A920001D3EF0BF0C6BA92EF0DF053
:101B200094EF0DF09DEF0DF0800EC76E080EC66E9F
:101B3000000EC56E270EC86EC68A12000001A86F7F
:101B4000000E0001A36FA85116EC0AF00001A76F68
:101B5000A651D96EDA6AA7C0DFFF12009FC09AF0C3
:101B6000A0C09BF0A1C09CF0A2C09DF0000E04ECB0
:101B70000BF012009FC09AF0A0C09BF0A1C09CF097
:101B8000A2C09DF0020E04EC0BF0120032C02DF04A
:101B900033C02EF034C02FF035C030F0000EA0EC72
:101BA0000BF012000BEC0EF0E8EC0DF0BEEC0CF0BC
:101BB00023EC0EF0D7EC09F012000001A86FA6C0CC
:101BC000A3F0A7C0A4F00001A85193EC0AF0120002
:101BD000800EC76E080EC66E000EC56E270EC86E4C
:101BE000C69A1200C5BCF7EF0DF0FAEF0DF0010E2A
:101BF000FBEF0DF0000E1200000183817C51010902
:101C000066EC0EF0050E1200000183817C5166EC3B
:101C10000EF0030E1200D08E9F889F8AA2869F86A8
:101C2000120000018393000E826F0E0E120000015D
:101C3000839189EC0EF0040E120000018393000ED4
:101C4000826F0E0E1200300ED36E000E9B6E1200CD
:101C50009AC048F09BC049F012009AC0B4F09BC0F3
:101C6000B5F012009AC0B0F09BC0B1F012009AC05B
:101C7000B2F09BC0B3F012009AC0AEF09BC0AFF0C0
:101C800012009AC00FF09BC010F01200000E5DEC25
:101C90000CF0120070EC0EF0090E120070EC0EF059
:101CA0000A0E12006DEC0EF0050E12008FEC0EF015
:101CB000000E120091EC0EF0010E120091EC0EF0ED
:101CC000020E120091EC0EF0010E12002D6E2DC0CE
:101CD000C9FF1200CDEC0AF01200C59AC5881200A7
:101CE000C58AC5881200AB98AB88120045EC0DF090
:101CF00012009D861200C58012009D961200C69AA1
:101D000012009E9612009E9612009E861200C950E6
:101D10001200C5861200050E1200010E1200C584C5
:081D20001200C582120012003E
:020000040030CA
:0E000000FF021F1EFF8B85FF0FC00FE00F4099
:00000001FF
